{
    "_format": "hh-sol-artifact-1",
    "contractName": "FrogFactory",
    "sourceName": "contracts/FrogFactory.sol",
    "abi": [
        {
            "inputs": [
                {
                    "internalType": "string",
                    "name": "_name",
                    "type": "string"
                },
                {
                    "internalType": "string",
                    "name": "_symbol",
                    "type": "string"
                },
                {
                    "internalType": "string",
                    "name": "_initBaseURI",
                    "type": "string"
                },
                {
                    "internalType": "string",
                    "name": "_initNotRevealedUri",
                    "type": "string"
                }
            ],
            "stateMutability": "nonpayable",
            "type": "constructor"
        },
        {
            "anonymous": false,
            "inputs": [
                {
                    "indexed": true,
                    "internalType": "address",
                    "name": "owner",
                    "type": "address"
                },
                {
                    "indexed": true,
                    "internalType": "address",
                    "name": "approved",
                    "type": "address"
                },
                {
                    "indexed": true,
                    "internalType": "uint256",
                    "name": "tokenId",
                    "type": "uint256"
                }
            ],
            "name": "Approval",
            "type": "event"
        },
        {
            "anonymous": false,
            "inputs": [
                {
                    "indexed": true,
                    "internalType": "address",
                    "name": "owner",
                    "type": "address"
                },
                {
                    "indexed": true,
                    "internalType": "address",
                    "name": "operator",
                    "type": "address"
                },
                {
                    "indexed": false,
                    "internalType": "bool",
                    "name": "approved",
                    "type": "bool"
                }
            ],
            "name": "ApprovalForAll",
            "type": "event"
        },
        {
            "anonymous": false,
            "inputs": [
                {
                    "indexed": true,
                    "internalType": "address",
                    "name": "previousOwner",
                    "type": "address"
                },
                {
                    "indexed": true,
                    "internalType": "address",
                    "name": "newOwner",
                    "type": "address"
                }
            ],
            "name": "OwnershipTransferred",
            "type": "event"
        },
        {
            "anonymous": false,
            "inputs": [
                {
                    "indexed": true,
                    "internalType": "address",
                    "name": "from",
                    "type": "address"
                },
                {
                    "indexed": true,
                    "internalType": "address",
                    "name": "to",
                    "type": "address"
                },
                {
                    "indexed": true,
                    "internalType": "uint256",
                    "name": "tokenId",
                    "type": "uint256"
                }
            ],
            "name": "Transfer",
            "type": "event"
        },
        {
            "inputs": [
                {
                    "internalType": "address",
                    "name": "to",
                    "type": "address"
                },
                {
                    "internalType": "uint256",
                    "name": "tokenId",
                    "type": "uint256"
                }
            ],
            "name": "approve",
            "outputs": [],
            "stateMutability": "nonpayable",
            "type": "function"
        },
        {
            "inputs": [
                {
                    "internalType": "address",
                    "name": "owner",
                    "type": "address"
                }
            ],
            "name": "balanceOf",
            "outputs": [
                {
                    "internalType": "uint256",
                    "name": "",
                    "type": "uint256"
                }
            ],
            "stateMutability": "view",
            "type": "function"
        },
        {
            "inputs": [],
            "name": "baseExtension",
            "outputs": [
                {
                    "internalType": "string",
                    "name": "",
                    "type": "string"
                }
            ],
            "stateMutability": "view",
            "type": "function"
        },
        {
            "inputs": [],
            "name": "cost",
            "outputs": [
                {
                    "internalType": "uint256",
                    "name": "",
                    "type": "uint256"
                }
            ],
            "stateMutability": "view",
            "type": "function"
        },
        {
            "inputs": [
                {
                    "internalType": "uint256",
                    "name": "tokenId",
                    "type": "uint256"
                }
            ],
            "name": "getApproved",
            "outputs": [
                {
                    "internalType": "address",
                    "name": "",
                    "type": "address"
                }
            ],
            "stateMutability": "view",
            "type": "function"
        },
        {
            "inputs": [
                {
                    "internalType": "address",
                    "name": "owner",
                    "type": "address"
                },
                {
                    "internalType": "address",
                    "name": "operator",
                    "type": "address"
                }
            ],
            "name": "isApprovedForAll",
            "outputs": [
                {
                    "internalType": "bool",
                    "name": "",
                    "type": "bool"
                }
            ],
            "stateMutability": "view",
            "type": "function"
        },
        {
            "inputs": [],
            "name": "maxMintAmount",
            "outputs": [
                {
                    "internalType": "uint256",
                    "name": "",
                    "type": "uint256"
                }
            ],
            "stateMutability": "view",
            "type": "function"
        },
        {
            "inputs": [],
            "name": "maxSupply",
            "outputs": [
                {
                    "internalType": "uint256",
                    "name": "",
                    "type": "uint256"
                }
            ],
            "stateMutability": "view",
            "type": "function"
        },
        {
            "inputs": [
                {
                    "internalType": "uint256",
                    "name": "_mintAmount",
                    "type": "uint256"
                }
            ],
            "name": "mint",
            "outputs": [],
            "stateMutability": "payable",
            "type": "function"
        },
        {
            "inputs": [],
            "name": "name",
            "outputs": [
                {
                    "internalType": "string",
                    "name": "",
                    "type": "string"
                }
            ],
            "stateMutability": "view",
            "type": "function"
        },
        {
            "inputs": [],
            "name": "notRevealedUri",
            "outputs": [
                {
                    "internalType": "string",
                    "name": "",
                    "type": "string"
                }
            ],
            "stateMutability": "view",
            "type": "function"
        },
        {
            "inputs": [],
            "name": "owner",
            "outputs": [
                {
                    "internalType": "address",
                    "name": "",
                    "type": "address"
                }
            ],
            "stateMutability": "view",
            "type": "function"
        },
        {
            "inputs": [
                {
                    "internalType": "uint256",
                    "name": "tokenId",
                    "type": "uint256"
                }
            ],
            "name": "ownerOf",
            "outputs": [
                {
                    "internalType": "address",
                    "name": "",
                    "type": "address"
                }
            ],
            "stateMutability": "view",
            "type": "function"
        },
        {
            "inputs": [
                {
                    "internalType": "bool",
                    "name": "_state",
                    "type": "bool"
                }
            ],
            "name": "pause",
            "outputs": [],
            "stateMutability": "nonpayable",
            "type": "function"
        },
        {
            "inputs": [],
            "name": "paused",
            "outputs": [
                {
                    "internalType": "bool",
                    "name": "",
                    "type": "bool"
                }
            ],
            "stateMutability": "view",
            "type": "function"
        },
        {
            "inputs": [],
            "name": "renounceOwnership",
            "outputs": [],
            "stateMutability": "nonpayable",
            "type": "function"
        },
        {
            "inputs": [],
            "name": "reveal",
            "outputs": [],
            "stateMutability": "nonpayable",
            "type": "function"
        },
        {
            "inputs": [],
            "name": "revealed",
            "outputs": [
                {
                    "internalType": "bool",
                    "name": "",
                    "type": "bool"
                }
            ],
            "stateMutability": "view",
            "type": "function"
        },
        {
            "inputs": [
                {
                    "internalType": "address",
                    "name": "from",
                    "type": "address"
                },
                {
                    "internalType": "address",
                    "name": "to",
                    "type": "address"
                },
                {
                    "internalType": "uint256",
                    "name": "tokenId",
                    "type": "uint256"
                }
            ],
            "name": "safeTransferFrom",
            "outputs": [],
            "stateMutability": "nonpayable",
            "type": "function"
        },
        {
            "inputs": [
                {
                    "internalType": "address",
                    "name": "from",
                    "type": "address"
                },
                {
                    "internalType": "address",
                    "name": "to",
                    "type": "address"
                },
                {
                    "internalType": "uint256",
                    "name": "tokenId",
                    "type": "uint256"
                },
                {
                    "internalType": "bytes",
                    "name": "_data",
                    "type": "bytes"
                }
            ],
            "name": "safeTransferFrom",
            "outputs": [],
            "stateMutability": "nonpayable",
            "type": "function"
        },
        {
            "inputs": [
                {
                    "internalType": "address",
                    "name": "operator",
                    "type": "address"
                },
                {
                    "internalType": "bool",
                    "name": "approved",
                    "type": "bool"
                }
            ],
            "name": "setApprovalForAll",
            "outputs": [],
            "stateMutability": "nonpayable",
            "type": "function"
        },
        {
            "inputs": [
                {
                    "internalType": "string",
                    "name": "_newBaseExtension",
                    "type": "string"
                }
            ],
            "name": "setBaseExtension",
            "outputs": [],
            "stateMutability": "nonpayable",
            "type": "function"
        },
        {
            "inputs": [
                {
                    "internalType": "string",
                    "name": "_newBaseURI",
                    "type": "string"
                }
            ],
            "name": "setBaseURI",
            "outputs": [],
            "stateMutability": "nonpayable",
            "type": "function"
        },
        {
            "inputs": [
                {
                    "internalType": "string",
                    "name": "_notRevealedURI",
                    "type": "string"
                }
            ],
            "name": "setNotRevealedURI",
            "outputs": [],
            "stateMutability": "nonpayable",
            "type": "function"
        },
        {
            "inputs": [
                {
                    "internalType": "uint256",
                    "name": "_newmaxMintAmount",
                    "type": "uint256"
                }
            ],
            "name": "setmaxMintAmount",
            "outputs": [],
            "stateMutability": "nonpayable",
            "type": "function"
        },
        {
            "inputs": [
                {
                    "internalType": "bytes4",
                    "name": "interfaceId",
                    "type": "bytes4"
                }
            ],
            "name": "supportsInterface",
            "outputs": [
                {
                    "internalType": "bool",
                    "name": "",
                    "type": "bool"
                }
            ],
            "stateMutability": "view",
            "type": "function"
        },
        {
            "inputs": [],
            "name": "symbol",
            "outputs": [
                {
                    "internalType": "string",
                    "name": "",
                    "type": "string"
                }
            ],
            "stateMutability": "view",
            "type": "function"
        },
        {
            "inputs": [
                {
                    "internalType": "uint256",
                    "name": "index",
                    "type": "uint256"
                }
            ],
            "name": "tokenByIndex",
            "outputs": [
                {
                    "internalType": "uint256",
                    "name": "",
                    "type": "uint256"
                }
            ],
            "stateMutability": "view",
            "type": "function"
        },
        {
            "inputs": [
                {
                    "internalType": "address",
                    "name": "owner",
                    "type": "address"
                },
                {
                    "internalType": "uint256",
                    "name": "index",
                    "type": "uint256"
                }
            ],
            "name": "tokenOfOwnerByIndex",
            "outputs": [
                {
                    "internalType": "uint256",
                    "name": "",
                    "type": "uint256"
                }
            ],
            "stateMutability": "view",
            "type": "function"
        },
        {
            "inputs": [
                {
                    "internalType": "uint256",
                    "name": "tokenId",
                    "type": "uint256"
                }
            ],
            "name": "tokenURI",
            "outputs": [
                {
                    "internalType": "string",
                    "name": "",
                    "type": "string"
                }
            ],
            "stateMutability": "view",
            "type": "function"
        },
        {
            "inputs": [],
            "name": "totalSupply",
            "outputs": [
                {
                    "internalType": "uint256",
                    "name": "",
                    "type": "uint256"
                }
            ],
            "stateMutability": "view",
            "type": "function"
        },
        {
            "inputs": [
                {
                    "internalType": "address",
                    "name": "from",
                    "type": "address"
                },
                {
                    "internalType": "address",
                    "name": "to",
                    "type": "address"
                },
                {
                    "internalType": "uint256",
                    "name": "tokenId",
                    "type": "uint256"
                }
            ],
            "name": "transferFrom",
            "outputs": [],
            "stateMutability": "nonpayable",
            "type": "function"
        },
        {
            "inputs": [
                {
                    "internalType": "address",
                    "name": "newOwner",
                    "type": "address"
                }
            ],
            "name": "transferOwnership",
            "outputs": [],
            "stateMutability": "nonpayable",
            "type": "function"
        },
        {
            "inputs": [
                {
                    "internalType": "address",
                    "name": "_owner",
                    "type": "address"
                }
            ],
            "name": "walletOfOwner",
            "outputs": [
                {
                    "internalType": "uint256[]",
                    "name": "",
                    "type": "uint256[]"
                }
            ],
            "stateMutability": "view",
            "type": "function"
        },
        {
            "inputs": [],
            "name": "withdraw",
            "outputs": [],
            "stateMutability": "payable",
            "type": "function"
        }
    ],
    "bytecode": "0x60806040526040518060400160405280600581526020017f2e6a736f6e000000000000000000000000000000000000000000000000000000815250600c908051906020019062000051929190620003a1565b506611c37937e08000600d55612710600e55600a600f556000601060006101000a81548160ff0219169083151502179055506000601060016101000a81548160ff021916908315150217905550348015620000ab57600080fd5b5060405162004b6f38038062004b6f8339818101604052810190620000d19190620004c3565b83838160009080519060200190620000eb929190620003a1565b50806001908051906020019062000104929190620003a1565b505050620001276200011b6200015360201b60201c565b6200015b60201b60201c565b62000138826200022160201b60201c565b6200014981620002cc60201b60201c565b5050505062000786565b600033905090565b6000600a60009054906101000a900473ffffffffffffffffffffffffffffffffffffffff16905081600a60006101000a81548173ffffffffffffffffffffffffffffffffffffffff021916908373ffffffffffffffffffffffffffffffffffffffff1602179055508173ffffffffffffffffffffffffffffffffffffffff168173ffffffffffffffffffffffffffffffffffffffff167f8be0079c531659141344cd1fd0a4f28419497f9722a3daafe3b4186f6b6457e060405160405180910390a35050565b620002316200015360201b60201c565b73ffffffffffffffffffffffffffffffffffffffff16620002576200037760201b60201c565b73ffffffffffffffffffffffffffffffffffffffff1614620002b0576040517f08c379a0000000000000000000000000000000000000000000000000000000008152600401620002a790620005ba565b60405180910390fd5b80600b9080519060200190620002c8929190620003a1565b5050565b620002dc6200015360201b60201c565b73ffffffffffffffffffffffffffffffffffffffff16620003026200037760201b60201c565b73ffffffffffffffffffffffffffffffffffffffff16146200035b576040517f08c379a00000000000000000000000000000000000000000000000000000000081526004016200035290620005ba565b60405180910390fd5b806011908051906020019062000373929190620003a1565b5050565b6000600a60009054906101000a900473ffffffffffffffffffffffffffffffffffffffff16905090565b828054620003af9062000682565b90600052602060002090601f016020900481019282620003d357600085556200041f565b82601f10620003ee57805160ff19168380011785556200041f565b828001600101855582156200041f579182015b828111156200041e57825182559160200191906001019062000401565b5b5090506200042e919062000432565b5090565b5b808211156200044d57600081600090555060010162000433565b5090565b600062000468620004628462000605565b620005dc565b9050828152602081018484840111156200048157600080fd5b6200048e8482856200064c565b509392505050565b600082601f830112620004a857600080fd5b8151620004ba84826020860162000451565b91505092915050565b60008060008060808587031215620004da57600080fd5b600085015167ffffffffffffffff811115620004f557600080fd5b620005038782880162000496565b945050602085015167ffffffffffffffff8111156200052157600080fd5b6200052f8782880162000496565b935050604085015167ffffffffffffffff8111156200054d57600080fd5b6200055b8782880162000496565b925050606085015167ffffffffffffffff8111156200057957600080fd5b620005878782880162000496565b91505092959194509250565b6000620005a26020836200063b565b9150620005af826200075d565b602082019050919050565b60006020820190508181036000830152620005d58162000593565b9050919050565b6000620005e8620005fb565b9050620005f68282620006b8565b919050565b6000604051905090565b600067ffffffffffffffff8211156200062357620006226200071d565b5b6200062e826200074c565b9050602081019050919050565b600082825260208201905092915050565b60005b838110156200066c5780820151818401526020810190506200064f565b838111156200067c576000848401525b50505050565b600060028204905060018216806200069b57607f821691505b60208210811415620006b257620006b1620006ee565b5b50919050565b620006c3826200074c565b810181811067ffffffffffffffff82111715620006e557620006e46200071d565b5b80604052505050565b7f4e487b7100000000000000000000000000000000000000000000000000000000600052602260045260246000fd5b7f4e487b7100000000000000000000000000000000000000000000000000000000600052604160045260246000fd5b6000601f19601f8301169050919050565b7f4f776e61626c653a2063616c6c6572206973206e6f7420746865206f776e6572600082015250565b6143d980620007966000396000f3fe6080604052600436106102045760003560e01c80635c975abb11610118578063a475b5dd116100a0578063d5abeb011161006f578063d5abeb011461073b578063da3ef23f14610766578063e985e9c51461078f578063f2c4ce1e146107cc578063f2fde38b146107f557610204565b8063a475b5dd14610693578063b88d4fde146106aa578063c6682862146106d3578063c87b56dd146106fe57610204565b80637f00c7a6116100e75780637f00c7a6146105cf5780638da5cb5b146105f857806395d89b4114610623578063a0712d681461064e578063a22cb4651461066a57610204565b80635c975abb146105135780636352211e1461053e57806370a082311461057b578063715018a6146105b857610204565b8063239c70ae1161019b57806342842e0e1161016a57806342842e0e1461041c578063438b6300146104455780634f6ccce71461048257806351830227146104bf57806355f804b3146104ea57610204565b8063239c70ae1461038157806323b872dd146103ac5780632f745c59146103d55780633ccfd60b1461041257610204565b8063081c8c44116101d7578063081c8c44146102d7578063095ea7b31461030257806313faede61461032b57806318160ddd1461035657610204565b806301ffc9a71461020957806302329a291461024657806306fdde031461026f578063081812fc1461029a575b600080fd5b34801561021557600080fd5b50610230600480360381019061022b9190613126565b61081e565b60405161023d919061371e565b60405180910390f35b34801561025257600080fd5b5061026d600480360381019061026891906130fd565b610898565b005b34801561027b57600080fd5b50610284610931565b6040516102919190613739565b60405180910390f35b3480156102a657600080fd5b506102c160048036038101906102bc91906131b9565b6109c3565b6040516102ce9190613695565b60405180910390f35b3480156102e357600080fd5b506102ec610a48565b6040516102f99190613739565b60405180910390f35b34801561030e57600080fd5b50610329600480360381019061032491906130c1565b610ad6565b005b34801561033757600080fd5b50610340610bee565b60405161034d919061399b565b60405180910390f35b34801561036257600080fd5b5061036b610bf4565b604051610378919061399b565b60405180910390f35b34801561038d57600080fd5b50610396610c01565b6040516103a3919061399b565b60405180910390f35b3480156103b857600080fd5b506103d360048036038101906103ce9190612fbb565b610c07565b005b3480156103e157600080fd5b506103fc60048036038101906103f791906130c1565b610c67565b604051610409919061399b565b60405180910390f35b61041a610d0c565b005b34801561042857600080fd5b50610443600480360381019061043e9190612fbb565b610e08565b005b34801561045157600080fd5b5061046c60048036038101906104679190612f56565b610e28565b60405161047991906136fc565b60405180910390f35b34801561048e57600080fd5b506104a960048036038101906104a491906131b9565b610f22565b6040516104b6919061399b565b60405180910390f35b3480156104cb57600080fd5b506104d4610fb9565b6040516104e1919061371e565b60405180910390f35b3480156104f657600080fd5b50610511600480360381019061050c9190613178565b610fcc565b005b34801561051f57600080fd5b50610528611062565b604051610535919061371e565b60405180910390f35b34801561054a57600080fd5b50610565600480360381019061056091906131b9565b611075565b6040516105729190613695565b60405180910390f35b34801561058757600080fd5b506105a2600480360381019061059d9190612f56565b611127565b6040516105af919061399b565b60405180910390f35b3480156105c457600080fd5b506105cd6111df565b005b3480156105db57600080fd5b506105f660048036038101906105f191906131b9565b611267565b005b34801561060457600080fd5b5061060d6112ed565b60405161061a9190613695565b60405180910390f35b34801561062f57600080fd5b50610638611317565b6040516106459190613739565b60405180910390f35b610668600480360381019061066391906131b9565b6113a9565b005b34801561067657600080fd5b50610691600480360381019061068c9190613085565b611495565b005b34801561069f57600080fd5b506106a86114ab565b005b3480156106b657600080fd5b506106d160048036038101906106cc919061300a565b611544565b005b3480156106df57600080fd5b506106e86115a6565b6040516106f59190613739565b60405180910390f35b34801561070a57600080fd5b50610725600480360381019061072091906131b9565b611634565b6040516107329190613739565b60405180910390f35b34801561074757600080fd5b5061075061178d565b60405161075d919061399b565b60405180910390f35b34801561077257600080fd5b5061078d60048036038101906107889190613178565b611793565b005b34801561079b57600080fd5b506107b660048036038101906107b19190612f7f565b611829565b6040516107c3919061371e565b60405180910390f35b3480156107d857600080fd5b506107f360048036038101906107ee9190613178565b6118bd565b005b34801561080157600080fd5b5061081c60048036038101906108179190612f56565b611953565b005b60007f780e9d63000000000000000000000000000000000000000000000000000000007bffffffffffffffffffffffffffffffffffffffffffffffffffffffff1916827bffffffffffffffffffffffffffffffffffffffffffffffffffffffff19161480610891575061089082611a4b565b5b9050919050565b6108a0611b2d565b73ffffffffffffffffffffffffffffffffffffffff166108be6112ed565b73ffffffffffffffffffffffffffffffffffffffff1614610914576040517f08c379a000000000000000000000000000000000000000000000000000000000815260040161090b906138fb565b60405180910390fd5b80601060006101000a81548160ff02191690831515021790555050565b60606000805461094090613ca4565b80601f016020809104026020016040519081016040528092919081815260200182805461096c90613ca4565b80156109b95780601f1061098e576101008083540402835291602001916109b9565b820191906000526020600020905b81548152906001019060200180831161099c57829003601f168201915b5050505050905090565b60006109ce82611b35565b610a0d576040517f08c379a0000000000000000000000000000000000000000000000000000000008152600401610a04906138db565b60405180910390fd5b6004600083815260200190815260200160002060009054906101000a900473ffffffffffffffffffffffffffffffffffffffff169050919050565b60118054610a5590613ca4565b80601f0160208091040260200160405190810160405280929190818152602001828054610a8190613ca4565b8015610ace5780601f10610aa357610100808354040283529160200191610ace565b820191906000526020600020905b815481529060010190602001808311610ab157829003601f168201915b505050505081565b6000610ae182611075565b90508073ffffffffffffffffffffffffffffffffffffffff168373ffffffffffffffffffffffffffffffffffffffff161415610b52576040517f08c379a0000000000000000000000000000000000000000000000000000000008152600401610b499061393b565b60405180910390fd5b8073ffffffffffffffffffffffffffffffffffffffff16610b71611b2d565b73ffffffffffffffffffffffffffffffffffffffff161480610ba05750610b9f81610b9a611b2d565b611829565b5b610bdf576040517f08c379a0000000000000000000000000000000000000000000000000000000008152600401610bd69061385b565b60405180910390fd5b610be98383611ba1565b505050565b600d5481565b6000600880549050905090565b600f5481565b610c18610c12611b2d565b82611c5a565b610c57576040517f08c379a0000000000000000000000000000000000000000000000000000000008152600401610c4e9061395b565b60405180910390fd5b610c62838383611d38565b505050565b6000610c7283611127565b8210610cb3576040517f08c379a0000000000000000000000000000000000000000000000000000000008152600401610caa9061375b565b60405180910390fd5b600660008473ffffffffffffffffffffffffffffffffffffffff1673ffffffffffffffffffffffffffffffffffffffff168152602001908152602001600020600083815260200190815260200160002054905092915050565b610d14611b2d565b73ffffffffffffffffffffffffffffffffffffffff16610d326112ed565b73ffffffffffffffffffffffffffffffffffffffff1614610d88576040517f08c379a0000000000000000000000000000000000000000000000000000000008152600401610d7f906138fb565b60405180910390fd5b6000610d926112ed565b73ffffffffffffffffffffffffffffffffffffffff1647604051610db590613680565b60006040518083038185875af1925050503d8060008114610df2576040519150601f19603f3d011682016040523d82523d6000602084013e610df7565b606091505b5050905080610e0557600080fd5b50565b610e2383838360405180602001604052806000815250611544565b505050565b60606000610e3583611127565b905060008167ffffffffffffffff811115610e79577f4e487b7100000000000000000000000000000000000000000000000000000000600052604160045260246000fd5b604051908082528060200260200182016040528015610ea75781602001602082028036833780820191505090505b50905060005b82811015610f1757610ebf8582610c67565b828281518110610ef8577f4e487b7100000000000000000000000000000000000000000000000000000000600052603260045260246000fd5b6020026020010181815250508080610f0f90613d07565b915050610ead565b508092505050919050565b6000610f2c610bf4565b8210610f6d576040517f08c379a0000000000000000000000000000000000000000000000000000000008152600401610f649061397b565b60405180910390fd5b60088281548110610fa7577f4e487b7100000000000000000000000000000000000000000000000000000000600052603260045260246000fd5b90600052602060002001549050919050565b601060019054906101000a900460ff1681565b610fd4611b2d565b73ffffffffffffffffffffffffffffffffffffffff16610ff26112ed565b73ffffffffffffffffffffffffffffffffffffffff1614611048576040517f08c379a000000000000000000000000000000000000000000000000000000000815260040161103f906138fb565b60405180910390fd5b80600b908051906020019061105e929190612d7a565b5050565b601060009054906101000a900460ff1681565b6000806002600084815260200190815260200160002060009054906101000a900473ffffffffffffffffffffffffffffffffffffffff169050600073ffffffffffffffffffffffffffffffffffffffff168173ffffffffffffffffffffffffffffffffffffffff16141561111e576040517f08c379a00000000000000000000000000000000000000000000000000000000081526004016111159061389b565b60405180910390fd5b80915050919050565b60008073ffffffffffffffffffffffffffffffffffffffff168273ffffffffffffffffffffffffffffffffffffffff161415611198576040517f08c379a000000000000000000000000000000000000000000000000000000000815260040161118f9061387b565b60405180910390fd5b600360008373ffffffffffffffffffffffffffffffffffffffff1673ffffffffffffffffffffffffffffffffffffffff168152602001908152602001600020549050919050565b6111e7611b2d565b73ffffffffffffffffffffffffffffffffffffffff166112056112ed565b73ffffffffffffffffffffffffffffffffffffffff161461125b576040517f08c379a0000000000000000000000000000000000000000000000000000000008152600401611252906138fb565b60405180910390fd5b6112656000611f9f565b565b61126f611b2d565b73ffffffffffffffffffffffffffffffffffffffff1661128d6112ed565b73ffffffffffffffffffffffffffffffffffffffff16146112e3576040517f08c379a00000000000000000000000000000000000000000000000000000000081526004016112da906138fb565b60405180910390fd5b80600f8190555050565b6000600a60009054906101000a900473ffffffffffffffffffffffffffffffffffffffff16905090565b60606001805461132690613ca4565b80601f016020809104026020016040519081016040528092919081815260200182805461135290613ca4565b801561139f5780601f106113745761010080835404028352916020019161139f565b820191906000526020600020905b81548152906001019060200180831161138257829003601f168201915b5050505050905090565b60006113b3610bf4565b9050601060009054906101000a900460ff16156113cf57600080fd5b600082116113dc57600080fd5b600f548211156113eb57600080fd5b600e5482826113fa9190613ad9565b111561140557600080fd5b61140d6112ed565b73ffffffffffffffffffffffffffffffffffffffff163373ffffffffffffffffffffffffffffffffffffffff161461145a5781600d5461144d9190613b60565b34101561145957600080fd5b5b6000600190505b8281116114905761147d3382846114789190613ad9565b612065565b808061148890613d07565b915050611461565b505050565b6114a76114a0611b2d565b8383612083565b5050565b6114b3611b2d565b73ffffffffffffffffffffffffffffffffffffffff166114d16112ed565b73ffffffffffffffffffffffffffffffffffffffff1614611527576040517f08c379a000000000000000000000000000000000000000000000000000000000815260040161151e906138fb565b60405180910390fd5b6001601060016101000a81548160ff021916908315150217905550565b61155561154f611b2d565b83611c5a565b611594576040517f08c379a000000000000000000000000000000000000000000000000000000000815260040161158b9061395b565b60405180910390fd5b6115a0848484846121f0565b50505050565b600c80546115b390613ca4565b80601f01602080910402602001604051908101604052809291908181526020018280546115df90613ca4565b801561162c5780601f106116015761010080835404028352916020019161162c565b820191906000526020600020905b81548152906001019060200180831161160f57829003601f168201915b505050505081565b606061163f82611b35565b61167e576040517f08c379a00000000000000000000000000000000000000000000000000000000081526004016116759061391b565b60405180910390fd5b60001515601060019054906101000a900460ff161515141561172c57601180546116a790613ca4565b80601f01602080910402602001604051908101604052809291908181526020018280546116d390613ca4565b80156117205780601f106116f557610100808354040283529160200191611720565b820191906000526020600020905b81548152906001019060200180831161170357829003601f168201915b50505050509050611788565b600061173661224c565b905060008151116117565760405180602001604052806000815250611784565b80611760846122de565b600c6040516020016117749392919061364f565b6040516020818303038152906040525b9150505b919050565b600e5481565b61179b611b2d565b73ffffffffffffffffffffffffffffffffffffffff166117b96112ed565b73ffffffffffffffffffffffffffffffffffffffff161461180f576040517f08c379a0000000000000000000000000000000000000000000000000000000008152600401611806906138fb565b60405180910390fd5b80600c9080519060200190611825929190612d7a565b5050565b6000600560008473ffffffffffffffffffffffffffffffffffffffff1673ffffffffffffffffffffffffffffffffffffffff16815260200190815260200160002060008373ffffffffffffffffffffffffffffffffffffffff1673ffffffffffffffffffffffffffffffffffffffff16815260200190815260200160002060009054906101000a900460ff16905092915050565b6118c5611b2d565b73ffffffffffffffffffffffffffffffffffffffff166118e36112ed565b73ffffffffffffffffffffffffffffffffffffffff1614611939576040517f08c379a0000000000000000000000000000000000000000000000000000000008152600401611930906138fb565b60405180910390fd5b806011908051906020019061194f929190612d7a565b5050565b61195b611b2d565b73ffffffffffffffffffffffffffffffffffffffff166119796112ed565b73ffffffffffffffffffffffffffffffffffffffff16146119cf576040517f08c379a00000000000000000000000000000000000000000000000000000000081526004016119c6906138fb565b60405180910390fd5b600073ffffffffffffffffffffffffffffffffffffffff168173ffffffffffffffffffffffffffffffffffffffff161415611a3f576040517f08c379a0000000000000000000000000000000000000000000000000000000008152600401611a369061379b565b60405180910390fd5b611a4881611f9f565b50565b60007f80ac58cd000000000000000000000000000000000000000000000000000000007bffffffffffffffffffffffffffffffffffffffffffffffffffffffff1916827bffffffffffffffffffffffffffffffffffffffffffffffffffffffff19161480611b1657507f5b5e139f000000000000000000000000000000000000000000000000000000007bffffffffffffffffffffffffffffffffffffffffffffffffffffffff1916827bffffffffffffffffffffffffffffffffffffffffffffffffffffffff1916145b80611b265750611b258261248b565b5b9050919050565b600033905090565b60008073ffffffffffffffffffffffffffffffffffffffff166002600084815260200190815260200160002060009054906101000a900473ffffffffffffffffffffffffffffffffffffffff1673ffffffffffffffffffffffffffffffffffffffff1614159050919050565b816004600083815260200190815260200160002060006101000a81548173ffffffffffffffffffffffffffffffffffffffff021916908373ffffffffffffffffffffffffffffffffffffffff160217905550808273ffffffffffffffffffffffffffffffffffffffff16611c1483611075565b73ffffffffffffffffffffffffffffffffffffffff167f8c5be1e5ebec7d5bd14f71427d1e84f3dd0314c0f7b2291e5b200ac8c7c3b92560405160405180910390a45050565b6000611c6582611b35565b611ca4576040517f08c379a0000000000000000000000000000000000000000000000000000000008152600401611c9b9061383b565b60405180910390fd5b6000611caf83611075565b90508073ffffffffffffffffffffffffffffffffffffffff168473ffffffffffffffffffffffffffffffffffffffff161480611d1e57508373ffffffffffffffffffffffffffffffffffffffff16611d06846109c3565b73ffffffffffffffffffffffffffffffffffffffff16145b80611d2f5750611d2e8185611829565b5b91505092915050565b8273ffffffffffffffffffffffffffffffffffffffff16611d5882611075565b73ffffffffffffffffffffffffffffffffffffffff1614611dae576040517f08c379a0000000000000000000000000000000000000000000000000000000008152600401611da5906137bb565b60405180910390fd5b600073ffffffffffffffffffffffffffffffffffffffff168273ffffffffffffffffffffffffffffffffffffffff161415611e1e576040517f08c379a0000000000000000000000000000000000000000000000000000000008152600401611e15906137fb565b60405180910390fd5b611e298383836124f5565b611e34600082611ba1565b6001600360008573ffffffffffffffffffffffffffffffffffffffff1673ffffffffffffffffffffffffffffffffffffffff1681526020019081526020016000206000828254611e849190613bba565b925050819055506001600360008473ffffffffffffffffffffffffffffffffffffffff1673ffffffffffffffffffffffffffffffffffffffff1681526020019081526020016000206000828254611edb9190613ad9565b92505081905550816002600083815260200190815260200160002060006101000a81548173ffffffffffffffffffffffffffffffffffffffff021916908373ffffffffffffffffffffffffffffffffffffffff160217905550808273ffffffffffffffffffffffffffffffffffffffff168473ffffffffffffffffffffffffffffffffffffffff167fddf252ad1be2c89b69c2b068fc378daa952ba7f163c4a11628f55a4df523b3ef60405160405180910390a4611f9a838383612609565b505050565b6000600a60009054906101000a900473ffffffffffffffffffffffffffffffffffffffff16905081600a60006101000a81548173ffffffffffffffffffffffffffffffffffffffff021916908373ffffffffffffffffffffffffffffffffffffffff1602179055508173ffffffffffffffffffffffffffffffffffffffff168173ffffffffffffffffffffffffffffffffffffffff167f8be0079c531659141344cd1fd0a4f28419497f9722a3daafe3b4186f6b6457e060405160405180910390a35050565b61207f82826040518060200160405280600081525061260e565b5050565b8173ffffffffffffffffffffffffffffffffffffffff168373ffffffffffffffffffffffffffffffffffffffff1614156120f2576040517f08c379a00000000000000000000000000000000000000000000000000000000081526004016120e99061381b565b60405180910390fd5b80600560008573ffffffffffffffffffffffffffffffffffffffff1673ffffffffffffffffffffffffffffffffffffffff16815260200190815260200160002060008473ffffffffffffffffffffffffffffffffffffffff1673ffffffffffffffffffffffffffffffffffffffff16815260200190815260200160002060006101000a81548160ff0219169083151502179055508173ffffffffffffffffffffffffffffffffffffffff168373ffffffffffffffffffffffffffffffffffffffff167f17307eab39ab6107e8899845ad3d59bd9653f200f220920489ca2b5937696c31836040516121e3919061371e565b60405180910390a3505050565b6121fb848484611d38565b61220784848484612669565b612246576040517f08c379a000000000000000000000000000000000000000000000000000000000815260040161223d9061377b565b60405180910390fd5b50505050565b6060600b805461225b90613ca4565b80601f016020809104026020016040519081016040528092919081815260200182805461228790613ca4565b80156122d45780601f106122a9576101008083540402835291602001916122d4565b820191906000526020600020905b8154815290600101906020018083116122b757829003601f168201915b5050505050905090565b60606000821415612326576040518060400160405280600181526020017f30000000000000000000000000000000000000000000000000000000000000008152509050612486565b600082905060005b6000821461235857808061234190613d07565b915050600a826123519190613b2f565b915061232e565b60008167ffffffffffffffff81111561239a577f4e487b7100000000000000000000000000000000000000000000000000000000600052604160045260246000fd5b6040519080825280601f01601f1916602001820160405280156123cc5781602001600182028036833780820191505090505b5090505b6000851461247f576001826123e59190613bba565b9150600a856123f49190613d50565b60306124009190613ad9565b60f81b81838151811061243c577f4e487b7100000000000000000000000000000000000000000000000000000000600052603260045260246000fd5b60200101907effffffffffffffffffffffffffffffffffffffffffffffffffffffffffffff1916908160001a905350600a856124789190613b2f565b94506123d0565b8093505050505b919050565b60007f01ffc9a7000000000000000000000000000000000000000000000000000000007bffffffffffffffffffffffffffffffffffffffffffffffffffffffff1916827bffffffffffffffffffffffffffffffffffffffffffffffffffffffff1916149050919050565b612500838383612800565b600073ffffffffffffffffffffffffffffffffffffffff168373ffffffffffffffffffffffffffffffffffffffff1614156125435761253e81612805565b612582565b8173ffffffffffffffffffffffffffffffffffffffff168373ffffffffffffffffffffffffffffffffffffffff161461258157612580838261284e565b5b5b600073ffffffffffffffffffffffffffffffffffffffff168273ffffffffffffffffffffffffffffffffffffffff1614156125c5576125c0816129bb565b612604565b8273ffffffffffffffffffffffffffffffffffffffff168273ffffffffffffffffffffffffffffffffffffffff1614612603576126028282612afe565b5b5b505050565b505050565b6126188383612b7d565b6126256000848484612669565b612664576040517f08c379a000000000000000000000000000000000000000000000000000000000815260040161265b9061377b565b60405180910390fd5b505050565b600061268a8473ffffffffffffffffffffffffffffffffffffffff16612d57565b156127f3578373ffffffffffffffffffffffffffffffffffffffff1663150b7a026126b3611b2d565b8786866040518563ffffffff1660e01b81526004016126d594939291906136b0565b602060405180830381600087803b1580156126ef57600080fd5b505af192505050801561272057506040513d601f19601f8201168201806040525081019061271d919061314f565b60015b6127a3573d8060008114612750576040519150601f19603f3d011682016040523d82523d6000602084013e612755565b606091505b5060008151141561279b576040517f08c379a00000000000000000000000000000000000000000000000000000000081526004016127929061377b565b60405180910390fd5b805181602001fd5b63150b7a0260e01b7bffffffffffffffffffffffffffffffffffffffffffffffffffffffff1916817bffffffffffffffffffffffffffffffffffffffffffffffffffffffff1916149150506127f8565b600190505b949350505050565b505050565b6008805490506009600083815260200190815260200160002081905550600881908060018154018082558091505060019003906000526020600020016000909190919091505550565b6000600161285b84611127565b6128659190613bba565b905060006007600084815260200190815260200160002054905081811461294a576000600660008673ffffffffffffffffffffffffffffffffffffffff1673ffffffffffffffffffffffffffffffffffffffff168152602001908152602001600020600084815260200190815260200160002054905080600660008773ffffffffffffffffffffffffffffffffffffffff1673ffffffffffffffffffffffffffffffffffffffff168152602001908152602001600020600084815260200190815260200160002081905550816007600083815260200190815260200160002081905550505b6007600084815260200190815260200160002060009055600660008573ffffffffffffffffffffffffffffffffffffffff1673ffffffffffffffffffffffffffffffffffffffff16815260200190815260200160002060008381526020019081526020016000206000905550505050565b600060016008805490506129cf9190613bba565b9050600060096000848152602001908152602001600020549050600060088381548110612a25577f4e487b7100000000000000000000000000000000000000000000000000000000600052603260045260246000fd5b906000526020600020015490508060088381548110612a6d577f4e487b7100000000000000000000000000000000000000000000000000000000600052603260045260246000fd5b906000526020600020018190555081600960008381526020019081526020016000208190555060096000858152602001908152602001600020600090556008805480612ae2577f4e487b7100000000000000000000000000000000000000000000000000000000600052603160045260246000fd5b6001900381819060005260206000200160009055905550505050565b6000612b0983611127565b905081600660008573ffffffffffffffffffffffffffffffffffffffff1673ffffffffffffffffffffffffffffffffffffffff168152602001908152602001600020600083815260200190815260200160002081905550806007600084815260200190815260200160002081905550505050565b600073ffffffffffffffffffffffffffffffffffffffff168273ffffffffffffffffffffffffffffffffffffffff161415612bed576040517f08c379a0000000000000000000000000000000000000000000000000000000008152600401612be4906138bb565b60405180910390fd5b612bf681611b35565b15612c36576040517f08c379a0000000000000000000000000000000000000000000000000000000008152600401612c2d906137db565b60405180910390fd5b612c42600083836124f5565b6001600360008473ffffffffffffffffffffffffffffffffffffffff1673ffffffffffffffffffffffffffffffffffffffff1681526020019081526020016000206000828254612c929190613ad9565b92505081905550816002600083815260200190815260200160002060006101000a81548173ffffffffffffffffffffffffffffffffffffffff021916908373ffffffffffffffffffffffffffffffffffffffff160217905550808273ffffffffffffffffffffffffffffffffffffffff16600073ffffffffffffffffffffffffffffffffffffffff167fddf252ad1be2c89b69c2b068fc378daa952ba7f163c4a11628f55a4df523b3ef60405160405180910390a4612d5360008383612609565b5050565b6000808273ffffffffffffffffffffffffffffffffffffffff163b119050919050565b828054612d8690613ca4565b90600052602060002090601f016020900481019282612da85760008555612def565b82601f10612dc157805160ff1916838001178555612def565b82800160010185558215612def579182015b82811115612dee578251825591602001919060010190612dd3565b5b509050612dfc9190612e00565b5090565b5b80821115612e19576000816000905550600101612e01565b5090565b6000612e30612e2b846139db565b6139b6565b905082815260208101848484011115612e4857600080fd5b612e53848285613c62565b509392505050565b6000612e6e612e6984613a0c565b6139b6565b905082815260208101848484011115612e8657600080fd5b612e91848285613c62565b509392505050565b600081359050612ea881614347565b92915050565b600081359050612ebd8161435e565b92915050565b600081359050612ed281614375565b92915050565b600081519050612ee781614375565b92915050565b600082601f830112612efe57600080fd5b8135612f0e848260208601612e1d565b91505092915050565b600082601f830112612f2857600080fd5b8135612f38848260208601612e5b565b91505092915050565b600081359050612f508161438c565b92915050565b600060208284031215612f6857600080fd5b6000612f7684828501612e99565b91505092915050565b60008060408385031215612f9257600080fd5b6000612fa085828601612e99565b9250506020612fb185828601612e99565b9150509250929050565b600080600060608486031215612fd057600080fd5b6000612fde86828701612e99565b9350506020612fef86828701612e99565b925050604061300086828701612f41565b9150509250925092565b6000806000806080858703121561302057600080fd5b600061302e87828801612e99565b945050602061303f87828801612e99565b935050604061305087828801612f41565b925050606085013567ffffffffffffffff81111561306d57600080fd5b61307987828801612eed565b91505092959194509250565b6000806040838503121561309857600080fd5b60006130a685828601612e99565b92505060206130b785828601612eae565b9150509250929050565b600080604083850312156130d457600080fd5b60006130e285828601612e99565b92505060206130f385828601612f41565b9150509250929050565b60006020828403121561310f57600080fd5b600061311d84828501612eae565b91505092915050565b60006020828403121561313857600080fd5b600061314684828501612ec3565b91505092915050565b60006020828403121561316157600080fd5b600061316f84828501612ed8565b91505092915050565b60006020828403121561318a57600080fd5b600082013567ffffffffffffffff8111156131a457600080fd5b6131b084828501612f17565b91505092915050565b6000602082840312156131cb57600080fd5b60006131d984828501612f41565b91505092915050565b60006131ee8383613631565b60208301905092915050565b61320381613bee565b82525050565b600061321482613a62565b61321e8185613a90565b935061322983613a3d565b8060005b8381101561325a57815161324188826131e2565b975061324c83613a83565b92505060018101905061322d565b5085935050505092915050565b61327081613c00565b82525050565b600061328182613a6d565b61328b8185613aa1565b935061329b818560208601613c71565b6132a481613e3d565b840191505092915050565b60006132ba82613a78565b6132c48185613abd565b93506132d4818560208601613c71565b6132dd81613e3d565b840191505092915050565b60006132f382613a78565b6132fd8185613ace565b935061330d818560208601613c71565b80840191505092915050565b6000815461332681613ca4565b6133308186613ace565b9450600182166000811461334b576001811461335c5761338f565b60ff1983168652818601935061338f565b61336585613a4d565b60005b8381101561338757815481890152600182019150602081019050613368565b838801955050505b50505092915050565b60006133a5602b83613abd565b91506133b082613e4e565b604082019050919050565b60006133c8603283613abd565b91506133d382613e9d565b604082019050919050565b60006133eb602683613abd565b91506133f682613eec565b604082019050919050565b600061340e602583613abd565b915061341982613f3b565b604082019050919050565b6000613431601c83613abd565b915061343c82613f8a565b602082019050919050565b6000613454602483613abd565b915061345f82613fb3565b604082019050919050565b6000613477601983613abd565b915061348282614002565b602082019050919050565b600061349a602c83613abd565b91506134a58261402b565b604082019050919050565b60006134bd603883613abd565b91506134c88261407a565b604082019050919050565b60006134e0602a83613abd565b91506134eb826140c9565b604082019050919050565b6000613503602983613abd565b915061350e82614118565b604082019050919050565b6000613526602083613abd565b915061353182614167565b602082019050919050565b6000613549602c83613abd565b915061355482614190565b604082019050919050565b600061356c602083613abd565b9150613577826141df565b602082019050919050565b600061358f602f83613abd565b915061359a82614208565b604082019050919050565b60006135b2602183613abd565b91506135bd82614257565b604082019050919050565b60006135d5600083613ab2565b91506135e0826142a6565b600082019050919050565b60006135f8603183613abd565b9150613603826142a9565b604082019050919050565b600061361b602c83613abd565b9150613626826142f8565b604082019050919050565b61363a81613c58565b82525050565b61364981613c58565b82525050565b600061365b82866132e8565b915061366782856132e8565b91506136738284613319565b9150819050949350505050565b600061368b826135c8565b9150819050919050565b60006020820190506136aa60008301846131fa565b92915050565b60006080820190506136c560008301876131fa565b6136d260208301866131fa565b6136df6040830185613640565b81810360608301526136f18184613276565b905095945050505050565b600060208201905081810360008301526137168184613209565b905092915050565b60006020820190506137336000830184613267565b92915050565b6000602082019050818103600083015261375381846132af565b905092915050565b6000602082019050818103600083015261377481613398565b9050919050565b60006020820190508181036000830152613794816133bb565b9050919050565b600060208201905081810360008301526137b4816133de565b9050919050565b600060208201905081810360008301526137d481613401565b9050919050565b600060208201905081810360008301526137f481613424565b9050919050565b6000602082019050818103600083015261381481613447565b9050919050565b600060208201905081810360008301526138348161346a565b9050919050565b600060208201905081810360008301526138548161348d565b9050919050565b60006020820190508181036000830152613874816134b0565b9050919050565b60006020820190508181036000830152613894816134d3565b9050919050565b600060208201905081810360008301526138b4816134f6565b9050919050565b600060208201905081810360008301526138d481613519565b9050919050565b600060208201905081810360008301526138f48161353c565b9050919050565b600060208201905081810360008301526139148161355f565b9050919050565b6000602082019050818103600083015261393481613582565b9050919050565b60006020820190508181036000830152613954816135a5565b9050919050565b60006020820190508181036000830152613974816135eb565b9050919050565b600060208201905081810360008301526139948161360e565b9050919050565b60006020820190506139b06000830184613640565b92915050565b60006139c06139d1565b90506139cc8282613cd6565b919050565b6000604051905090565b600067ffffffffffffffff8211156139f6576139f5613e0e565b5b6139ff82613e3d565b9050602081019050919050565b600067ffffffffffffffff821115613a2757613a26613e0e565b5b613a3082613e3d565b9050602081019050919050565b6000819050602082019050919050565b60008190508160005260206000209050919050565b600081519050919050565b600081519050919050565b600081519050919050565b6000602082019050919050565b600082825260208201905092915050565b600082825260208201905092915050565b600081905092915050565b600082825260208201905092915050565b600081905092915050565b6000613ae482613c58565b9150613aef83613c58565b9250827fffffffffffffffffffffffffffffffffffffffffffffffffffffffffffffffff03821115613b2457613b23613d81565b5b828201905092915050565b6000613b3a82613c58565b9150613b4583613c58565b925082613b5557613b54613db0565b5b828204905092915050565b6000613b6b82613c58565b9150613b7683613c58565b9250817fffffffffffffffffffffffffffffffffffffffffffffffffffffffffffffffff0483118215151615613baf57613bae613d81565b5b828202905092915050565b6000613bc582613c58565b9150613bd083613c58565b925082821015613be357613be2613d81565b5b828203905092915050565b6000613bf982613c38565b9050919050565b60008115159050919050565b60007fffffffff0000000000000000000000000000000000000000000000000000000082169050919050565b600073ffffffffffffffffffffffffffffffffffffffff82169050919050565b6000819050919050565b82818337600083830152505050565b60005b83811015613c8f578082015181840152602081019050613c74565b83811115613c9e576000848401525b50505050565b60006002820490506001821680613cbc57607f821691505b60208210811415613cd057613ccf613ddf565b5b50919050565b613cdf82613e3d565b810181811067ffffffffffffffff82111715613cfe57613cfd613e0e565b5b80604052505050565b6000613d1282613c58565b91507fffffffffffffffffffffffffffffffffffffffffffffffffffffffffffffffff821415613d4557613d44613d81565b5b600182019050919050565b6000613d5b82613c58565b9150613d6683613c58565b925082613d7657613d75613db0565b5b828206905092915050565b7f4e487b7100000000000000000000000000000000000000000000000000000000600052601160045260246000fd5b7f4e487b7100000000000000000000000000000000000000000000000000000000600052601260045260246000fd5b7f4e487b7100000000000000000000000000000000000000000000000000000000600052602260045260246000fd5b7f4e487b7100000000000000000000000000000000000000000000000000000000600052604160045260246000fd5b6000601f19601f8301169050919050565b7f455243373231456e756d657261626c653a206f776e657220696e646578206f7560008201527f74206f6620626f756e6473000000000000000000000000000000000000000000602082015250565b7f4552433732313a207472616e7366657220746f206e6f6e20455243373231526560008201527f63656976657220696d706c656d656e7465720000000000000000000000000000602082015250565b7f4f776e61626c653a206e6577206f776e657220697320746865207a65726f206160008201527f6464726573730000000000000000000000000000000000000000000000000000602082015250565b7f4552433732313a207472616e736665722066726f6d20696e636f72726563742060008201527f6f776e6572000000000000000000000000000000000000000000000000000000602082015250565b7f4552433732313a20746f6b656e20616c7265616479206d696e74656400000000600082015250565b7f4552433732313a207472616e7366657220746f20746865207a65726f2061646460008201527f7265737300000000000000000000000000000000000000000000000000000000602082015250565b7f4552433732313a20617070726f766520746f2063616c6c657200000000000000600082015250565b7f4552433732313a206f70657261746f7220717565727920666f72206e6f6e657860008201527f697374656e7420746f6b656e0000000000000000000000000000000000000000602082015250565b7f4552433732313a20617070726f76652063616c6c6572206973206e6f74206f7760008201527f6e6572206e6f7220617070726f76656420666f7220616c6c0000000000000000602082015250565b7f4552433732313a2062616c616e636520717565727920666f7220746865207a6560008201527f726f206164647265737300000000000000000000000000000000000000000000602082015250565b7f4552433732313a206f776e657220717565727920666f72206e6f6e657869737460008201527f656e7420746f6b656e0000000000000000000000000000000000000000000000602082015250565b7f4552433732313a206d696e7420746f20746865207a65726f2061646472657373600082015250565b7f4552433732313a20617070726f76656420717565727920666f72206e6f6e657860008201527f697374656e7420746f6b656e0000000000000000000000000000000000000000602082015250565b7f4f776e61626c653a2063616c6c6572206973206e6f7420746865206f776e6572600082015250565b7f4552433732314d657461646174613a2055524920717565727920666f72206e6f60008201527f6e6578697374656e7420746f6b656e0000000000000000000000000000000000602082015250565b7f4552433732313a20617070726f76616c20746f2063757272656e74206f776e6560008201527f7200000000000000000000000000000000000000000000000000000000000000602082015250565b50565b7f4552433732313a207472616e736665722063616c6c6572206973206e6f74206f60008201527f776e6572206e6f7220617070726f766564000000000000000000000000000000602082015250565b7f455243373231456e756d657261626c653a20676c6f62616c20696e646578206f60008201527f7574206f6620626f756e64730000000000000000000000000000000000000000602082015250565b61435081613bee565b811461435b57600080fd5b50565b61436781613c00565b811461437257600080fd5b50565b61437e81613c0c565b811461438957600080fd5b50565b61439581613c58565b81146143a057600080fd5b5056fea26469706673582212207a0924c24ca1a99062b92b7ea86f2349d280238c9ad230204e6871aa8c50e04d64736f6c63430008040033",
    "linkReferences": {},
    "deployedLinkReferences": {}
}